:030000000218A241
:0C18A200787FE4F6D8FD7581200218E97B
:101805004200EF00004400F1000000004100ED003F
:041815004100EE00A0
:07000300E4F5BD759D032229
:10000E00EF44E8F5BCE5BC30E4FBE4F5BC9000ED54
:04001E00E5BDF0222A
:101C19007F0112000E9000EEE0FB7A009000EDE0EB
:101C2900C39BFEE49A9000EFF0A3CEF09000EFE0A2
:101C3900FEA3E0FF7C007D1A1212809000EFEEF007
:101C4900A3EFF0AD031212929000EFEEF0A3EFF0C4
:0F1C590020920BE02403F09000EFE03400F02223
:10174B00E4FF12000E9000EEE0FF9000EDE0C39F6F
:10175B00FFE49400FEE4FCFD9000F11214289000CD
:10176B00F1E0FCA3E0FDA3E0FEA3E0FFE47B4D7AF8
:10177B0008F9F81212E79000F11214289000F1E02A
:10178B00FCA3E0FDA3E0FEA3E0FFC0079000EEE0AA
:10179B00FBE4FAF9F8D0071213729000F112142837
:1017AB009000F1E0FCA3E0FDA3E0FEA3E0FFE47BEF
:1017BB00E97A03F9F81212E79000F112142890005D
:1017CB00F1E0FCA3E0FDA3E0FEA3E0C3949BFFEEDE
:1017DB00944AFEED9400FDEC9400FC9000F1121481
:1017EB00289000F1E0FCA3E0FDA3E0FEA3E0FF786E
:0A17FB000A1214159000F1021428E0
:1000260000000000000000000000000000000000CA
:10003600000000F80000000000000033300000005F
:1000460000100C06100C0600000000000000000066
:1000560040C07840C0784000043F04043F040400D8
:10006600007088FC08300000001820FF211E0000E8
:10007600F008F000E018000000211C031E211E00FD
:1000860000F00888700000001E2123241927211083
:1000960010160E0000000000000000000000000026
:1000A600000000E0180402000000000718204000CD
:1000B60000020418E00000000040201807000000BD
:1000C600404080F0804040000202010F0102020021
:1000D600000000F0000000000101011F0101010005
:1000E600000000000000000080B07000000000006A
:1000F60000000000000000000001010101010101F3
:100106000000000000000000003030000000000089
:10011600000000008060180400601806010000005E
:1001260000E010080810E000000F102020100F005B
:10013600001010F8000000000020203F20200000E2
:10014600007008080888700000302824222130003A
:1001560000300888884830000018202020110E0042
:100166000000C02010F8000000070424243F2400EB
:1001760000F80888880808000019212020110E00C0
:1001860000E0108888180000000F112020110E00D2
:1001960000380808C83808000000003F00000000CA
:1001A6000070880808887000001C222121221C008B
:1001B60000E010080810E0000000312222110F00B4
:1001C6000000C038E0000000203C2302022738204F
:1001D60008F8888888700000203F202020110E0033
:1001E600C03008080808380007182020201008002A
:1001F60008F808080810E000203F202020100F0013
:1002060008F88888E8081000203F202023201800DE
:1002160008F88888E8081000203F20000300000046
:10022600C03008080838000007182020221E0200E7
:1002360008F808000008F808203F210101213F20A6
:10024600000808F8080800000020203F20200000D1
:1002560000000808F8080800C08080807F000000C1
:1002660008F888C028180800203F200126382000FA
:1002760008F8080000000000203F20202020300061
:1002860008F8F800F8F80800203F003F003F20007B
:1002960008F830C00008F808203F200007183F0083
:1002A600E01008080810E0000F10202020100F00B2
:1002B60008F808080808F000203F210101010000A5
:1002C600E01008080810E0000F18242438504F00EA
:1002D60008F8888888887000203F2000030C3020AA
:1002E60000708808080838000038202121221C00E8
:1002F600180808F8080818000000203F2000000031
:1003060008F808000008F808001F202020201F0019
:100316000878880000C83808000007380E01000079
:10032600F80800F80008F800033C0700073C030043
:10033600081868808068180820302C03032C3020A9
:100346000838C800C83808000000203F2000000018
:1003560010080808C8380800203826212020180070
:10036600000000C0C00000000000003030000000A7
:100376000000008000000000000080600000000017
:100386000000804020100800000102040810200030
:10039600404040404040400004040404040404007B
:1003A6000008102040800000002010080402010010
:1003B600007048080808F000000000303601000010
:1003C600C030C828E810E0000718272423140B00C3
:1003D600000000FE020202000000007F40404000D4
:1003E600000C30C000000000000000010638C0000C
:1003F60000020202FE000000004040407F000000B4
:1004060000000402020204000000000000000000D8
:1004160000000000000000008080808080808080D6
:1004260000020204000000000000000000000000BE
:1004360000008080808000000019242222223F20B4
:1004460008F8008080000000003F112020110E00F7
:100456000000008080800000000E11202020110086
:10046600000000808088F800000E112020103F2038
:100476000000808080800000001F222222221300BC
:10048600008080F0888888180020203F2020000007
:100496000000808080808000006B949494936000BC
:1004A60008F8008080800000203F210000203F20C7
:1004B60000809898000000000020203F20200000C7
:1004C600000000809898000000C08080807F0000B7
:1004D60008F8000080808000203F24022D30200094
:1004E600000808F8000000000020203F202000003F
:1004F6008080808080808000203F20003F20003F59
:100506008080008080800000203F210000203F2066
:100516000000808080800000001F202020201F0017
:10052600808000808000000080FFA12020110E0046
:100536000000008080808000000E112020A0FF8037
:10054600808080008080800020203F2120000100E4
:100556000000808080808000003324242424190039
:10056600008080E0808000000000001F2020000046
:100576008080000000808000001F202020103F2087
:10058600808080000080808000010E300806010017
:1005960080800080008080800F300C030C300F00BC
:1005A60000808000808080000020312E0E312000E7
:1005B600808080000080808080818E701806010017
:1005C60000808080808080000021302C2221300035
:1005D60000000000807C020200000000003F404056
:1005E60000000000FF00000000000000FF00000007
:1005F6000002027C800000000040403F0000000036
:1006060000060101020204040000000000000000D0
:10061600404042CC0040A09E8282829EA0202000C4
:100626000000003F908840432C10284641808000FF
:10063600809090484C57242424544C448080800059
:10064600000000FF4949497F494949FF0000000071
:10065600404042CC00202222A26222222220000018
:100666000040201F20444E4544444445464C40002B
:10067600001088C4330040424242C2424242400017
:10068600020100FF0000000040807F000000000023
:100696008060F807000474545556545474040000DE
:1006A6000000FF0003010545857D050505010300E2
:1006B600000000F0000000FF404040404000000005
:1006C6004040407F4040407F4040404040404000E6
:1006D600100C0424242425262424242404140C0089
:1006E60000818141310F0101017F818181F100008B
:1006F6000000F8888888880808FF08090AC80800E2
:1007060080601F0010201F80402116182641F80027
:10071600404042CC0040404040FF40404040400006
:100726000000007F2010000000FF00000000000015
:1007360090523410FF10345280708F0808F8080069
:10074600829A566322528E008040330C33408000DA
:10075600E0180402022111F9010102020418E00066
:10076600030C10202040404F40402020100C030076
:10077600E018040202110909897102020418E00056
:10078600030C1020204C4A4948482020100C030036
:10079600E0180402020989C9291902020418E000B6
:1007A600030C10202044484849462020100C030022
:1007B60000020202028242F20E428202020200009D
:1007C60010080402010000FF00000001020C0000F6
:1007D6004040202050484443444850202040400098
:1007E600000000FE42424242424242FE0000000039
:1007F6001010D0FF90201018A744A4140C0000007D
:10080600040300FF000502FD44444445FD020200C6
:100816000000000000000000000000C0300C0300D3
:100826000000001008041820100C0300000000004F
:100836000000000810204080402010080000000042
:100846000000000804020100010204080000000084
:071F0600C2B5C2B6C2B7224A
:101D7D00EF24FE60101460131460162403701BED25
:101D8D0024FF92B522ED24FF92B622ED24FF92B7E7
:0B1D9D0022ED24FF92B592B692B7220F
:0F1EB5008FC343C78275C50375C65A75C6A5226C
:101E7A008FC38DC443C78275C50175C65A75C6A579
:061E8A007813A6C2E6FF7A
:011E9000222F
:101E91008FC38DC48BC243C78275C50275C65A757F
:031EA100C6A522B1
:051F0D00D297D29622DC
:0D1EE10000000000000000000000000022D2
:0E1ED300D296D297121EE1C297C296021EE16D
:0C1EEE00C297D296121EE1D297021EE1AC
:101DA800C296D297E47813F6EF339297EF25E0FFC7
:101DB800D296121EE1C296121EE1781306E6C3946B
:051DC8000840E5D29780
:011DCD0022F3
:101E3D0078147601D296121EE17814E6FF60101820
:101E4D00E6C39405500906A297E43308F680EAC26A
:011E5D0096EE
:011E5E002261
:101819004100F8004100F7004100F5004100F601E0
:031F1200D2B32225
:101AAF0020B3529000F6E06401704A9000F5E00414
:101ABF00F0E0D394C84047E4F020B342A3F0900085
:101ACF0006E0601A9000D9E070342006319000F8DB
:101ADF007402F09000D914F09000F704F0229000F7
:101AEF00D9E0701A2006179000F804F09000D9F092
:0E1AFF009000F7F02230B3069000F67401F06C
:011B0D0022B5
:0C1EFA00900008E06003C2CD22D2CD228F
:101829004100100041000600410008004200030089
:101839000041000B004200B1000041000CC841000A
:101849000D004100B30341000000410001004100C7
:041859000200C100C8
:03000B00021E5F73
:101E5F00C0E0C083C0829000B2E004F07006900032
:0B1E6F00B1E004F0D082D083D0E0325C
:1019B200538E7F5389F0758A2C758CCFD28CD2A925
:1019C200D2AFD2CDD293D294D292D2B4E4FD7F02DE
:1019D200121E7A9000B3EFF024FE601E14603524CC
:1019E20002704D900007741EF09000057432F09062
:1019F20000097403F0A3742080159000077450F05E
:101A02009000057414F09000097402F0A37426F09B
:101A1200D20480189000077450F09000057414F0FE
:101A22009000097403F0A37420F0C204D201D2031F
:011A32002291
:021B6B008F08E1
:101B6D00E4F50930013812174B900009E0FEA3E0AF
:101B7D00FFE4FCFD9000F1E0F8A3E0F9A3E0FAA387
:101B8D00E0FBD31214044011900000E004F0E09447
:101B9D0009400B850809AF0922E4900000F0900080
:101BAD0007E0FFC39000B2E09F9000B1E0940040C9
:081BBD0005E4900000F0AF09FF
:011BC50022FD
:041A33008F088B0A83
:101A3700E4F50CD39000B2E094069000B1E0940076
:101A4700406330030BA292E43365086003ED420C58
:101A570030020BA2B4E433B50804E50B420C3004A2
:101A670044121C19E508701B9000EFE0FEA3E0FF8D
:101A7700D39408EE94005029C3EF9405EE940050D8
:101A870024801EE508B4011D9000EFE0FEA3E0FFEF
:101A9700D39404EE94005009C3EF9401EE940050E0
:071AA70004E50A420CAF0C3C
:011AAE002215
:10085600900006E014602114700302096614700308
:100866000209FC147003020B3C24046003020E16FA
:10087600E4900001F0020A48900001E01460371489
:10088600700302090C14700302092D24036003028D
:100896000E167D017F03121D7D900005E075F002A6
:1008A600A4FFC39000B2E09F9000B1E095F0500322
:1008B600020E16020BADD293C294900002E0FF9096
:1008C60000B1E0FCA3E0FD6F7001EC601C9000023B
:1008D600EDF012174B9000EDE0FF900002E02411BE
:1008E600F582E43400F583EFF0900007E075F0023E
:1008F600A4FFC39000B2E09F9000B1E095F05003D2
:10090600020E16020C18D293D294900005E075F0F0
:1009160002A4FFC39000B2E09F9000B1E095F050B2
:1009260003020E16020C6DE4FD7F02121D7DE4FD2E
:100936007F01121D7D900005E075F002A4FFC390B3
:1009460000B2E09F9000B1E095F05003020E16E46D
:10095600900001F09000B1F0A3F09000020209F4BB
:10096600900001E014602C14605224026003020E11
:1009760016900007E075F002A4FFC39000B2E09F56
:100986009000B1E095F05003020E1690000174013C
:10099600020AF67D017F01121D7D900007E075F0C9
:1009A60002A4FFC39000B2E09F9000B1E095F05022
:1009B60003020E169000017402020AF67D017F0200
:1009C600121D7D7D017F03121D7D900007E075F0ED
:1009D60002A4FFC39000B2E09F9000B1E095F050F2
:1009E60003020E16E4900001F09000B1F0A3F0901F
:1009F60000067404F022200005D200020D059000C6
:100A060001E0146048146078147003020AAB147095
:100A160003020AD3147003020AFB24056003020EC4
:100A260016900007E075F002A4FFC39000B2E09FA5
:100A36009000B1E095F05003020E1690000174018B
:100A4600F0E49000B1F0A3F0900002F022E4FD7F04
:100A560002121D7DE4FD7F03121D7DD293C2949088
:100A66000007E075F002A4FFC39000B2E09F90007B
:100A7600B1E095F05003020E1690000174028070EA
:100A8600D293D294900005E075F002A4FFC39000C3
:100A9600B2E09F9000B1E095F05003020E16900070
:100AA600017403804BE4FD7F01121D7D900005E07B
:100AB60075F002A4FFC39000B2E09F9000B1E095EC
:100AC600F05003020E1690000174048023C293D2E4
:100AD60094900007E075F002A4FFC39000B2E09F77
:100AE6009000B1E095F05003020E169000017405D7
:100AF600F0E4020CE0D293D294900005E075F00287
:100B0600A4FFC39000B2E09F9000B1E095F05003BF
:100B1600020E16E4900001F09000B1F0A3F09000F0
:100B260006F0C20090000DE094C85003020E169025
:100B3600000B7401F022900001E0B40700400302AC
:100B46000E16900B4FF8282873020B64020BB9029D
:100B56000C24020C78020CE7020D0B020D8CC293DA
:100B6600D294900002E0FF9000B1E0FCA3E0FD6F9C
:100B76007001EC6018900002EDF0900008E0FEC0F5
:100B8600067F10121B6BD0E04F900008F090000714
:100B9600E075F002A4FFC39000B2E09F9000B1E0C0
:100BA60095F05003020E169000017401F0E4A3F0D4
:100BB600020CE0D293D294900002E0FF9000B1E0E4
:100BC600FCA3E0FD6F7001EC602E900002EDF0904A
:100BD6000008E0FEC006750B407B047D017F011214
:100BE6001A33D0E04F900008F090000DE0700990A5
:100BF60000EFA3E090000EF0900005E075F002A46F
:100C0600FFC39000B2E09F9000B1E095F050030260
:100C16000E169000017402F0E4A3F0020CE0D293E9
:100C2600C294900002E0FF9000B1E0FCA3E0FD6FEB
:100C36007001EC6018900002EDF0900008E0FEC034
:100C4600067F20121B6BD0E04F900008F090000743
:100C5600E075F002A4FFC39000B2E09F9000B1E0FF
:100C660095F05003020E169000017403F0E4A3F011
:100C76008068D293D294900002E0FF9000B1E0FC2D
:100C8600A3E0FD6F7001EC602E900002EDF0900085
:100C960008E0FEC006750B807B087D02E4FF121A91
:100CA60033D0E04F900008F090000DE070099000FE
:100CB600EFA3E090000FF0900005E075F002A4FFAE
:100CC600C39000B2E09F9000B1E095F05003020E91
:100CD600169000017404F0E4A3F09000B1F0A3F0C4
:100CE6002290000DE004F0E0FF64646006EFC39418
:100CF600C8400C9000017405F0E4900010F022E466
:100D0600900001F0229000D8E06025E49000DAF02F
:100D1600900001F09000B1F0A3F090000DE0FFB458
:100D26006403020DB6EF64C86003020E16020DC41A
:100D360020050B9000DAE064016003020E16E490D1
:100D460000B1F0A3F09000017406F0E49000DAF030
:100D56009000B3E0FF64036008900008E0647E60E2
:100D66000BEFB40314900008E0B4720D9000D97430
:100D760001F09000F77409F0229000D97401F09008
:100D860000F77407F0229000D7E0FF6401703690F8
:100D960000D8E0607BE49000D7F09000D8F0900097
:100DA60001F09000B1F0A3F090000DE0FEB46409EC
:100DB6009000067402F0C20222EE64C870529000DF
:100DC600067403F022C39000B2E094209000B1E0D4
:100DD60094035005EF64027037E49000D7F090005A
:100DE60001F09000B1F0A3F090000DE0FFB4640AAA
:100DF6009000067402F0C202800AEFB4C8069000A2
:100E0600067403F09000D97401F09000F77408F0AE
:010E160022B9
:09185D004100F9004200FA00000C
:100E17009000F9E004F0E01214340E4F020E68045B
:100E27000EA0060EDF080F1C0A0F5F0C0F7C0E0FBB
:100E3700A9120FDF140FFC1610191810311A1052CF
:100E47001C10791E0000107EE4FD7F04121E7AEF4D
:100E570024F9F50EE434FFF50D7B547A007D02800A
:100E6700327D017F04121E7AEF75F00A842430FB6D
:100E7700E433FAC002C0037D017F04121E7AEF75C6
:100E8700F00A84E5F02430F50EE433F50DD003D0F5
:100E9700027D037C00E4020F5B90000BE0600F759E
:100EA7000D00750E0CE4FBFA7D05FC020F5B90004C
:100EB70006E0600F750D00750E04E4FBFA7D05FC76
:100EC700020F5B900006E0600302107EF50D750EC1
:100ED70008FBFA7D05FC807C90000BE0600E750D29
:100EE70000750E0EE4FBFA7D06FC8068900006E0B4
:100EF700600E750D00750E06E4FBFA7D06FC805446
:100F0700900006E0600302107EF50D750E0AFBFAED
:100F17007D06FC803F9000B3E0B4010E750D0075AF
:100F27000E14E4FBFA7D07FC802A9000B3E0B402BC
:100F37000E750D00750E16E4FBFA7D07FC80159003
:100F470000B3E06403600302107EF50D750E18FB15
:100F5700FA7D07FCFF02107690000DE075F06484BF
:100F67002430F50EE433F50D7B547A007D027C00C6
:100F77007F0202107690000DE0FF75F06484E5F0C3
:100F870075F00A842430FBE433FAEF75F00A84E540
:100F9700F02430F50EE433F50D7D037C007F02026B
:100FA70010769000EFE0FEA3E0FF7C007D0A1212AE
:100FB70092EF2430FBE43EFA9000EFE0FEA3E0FF5F
:100FC7007C007D0A121292ED2430F50EE43CF50DFB
:100FD700E4FDFC7F04021076309208750D00750E53
:100FE700478006750D00750E527B207A007D027CC6
:100FF700007F04807A30B408750D00750E478006AF
:10100700750D00750E527B207A007D047C007F04ED
:10101700805D900010E02430FBE433FA750D007515
:101027000E207D077C007F048045900008E0FFC408
:10103700540F2430FBE433FAEF540F2430F50EE459
:1010470033F50D7D017C007F068024900008E06069
:101057000E750D00750E1AE4FBFA7D05FC800E7502
:101067000D00750E207B207A007D057C007F06022F
:071077001DF7E49000F9F001
:01107E00224F
:101D4200300503121AAF9000F8E0FFB401199000B9
:101D5200067401F0E490000BF0D2CD90000DF090EB
:101D62000008F0D202800EEFB4020A90000674035B
:0B1D7200F0D293D294E49000F8F0222D
:101CB6009000FBE004F070069000FAE004F090005B
:101CC600FAE0B40521A3E0B4DC1C900006E070162F
:101CD6009000EEE0700D12174B9000EDE09000EED4
:101CE600F08003121C19C39000FBE094A49000FA44
:091CF600E094064004E4F0A3F0C0
:011CFF0022C2
:101C6800E4F591F592F5B175B2E2F5C9F5CA121E1F
:101C780018120003121F0D1215941219B2121F1216
:101C8800121F067F04121EB57B44E4FD7F04121E5A
:101C9800917B017D017F04121E91121EA4120E1762
:0E1CA800120856121D42121CB6121EFA80ECD3
:041866004100D40069
:051DCE00E5102410FFE8
:101DD3008F12121ED37F78121DA8121E3DE4FF122C
:101DE3001DA8121E3DAF12121DA8121E3D021EEEAB
:10168A00EF24E0FFED24E0FEE4FD75F010EFA42D59
:10169A00F582E435F0F583E5822426F582E5833484
:1016AA0000F583E493FC74B42DF582E43400F583E9
:1016BA00ECF00DBD08D4E4FD75F010EEA42DF58212
:1016CA00E435F0F583E5822426F582E5833400F5D6
:1016DA0083E493FC74BC2DF582E43400F583ECF0CA
:1016EA000DBD08D4E4FD75F010EFA42DF582E435A4
:1016FA00F0F583E582242EF582E5833400F583E450
:10170A0093FC74C42DF582E43400F583ECF00DBD2E
:10171A0008D4E4FD75F010EEA42DF582E435F0F559
:10172A0083E582242EF582E5833400F583E493FF72
:10173A0074CC2DF582E43400F583EFF00DBD08D4A6
:01174A00227C
:101B0E00E4FE75F010EFA42416F582E5F03406F528
:101B1E0083E5822EF582E43583F583E493FD74B478
:101B2E002EF582E43400F583EDF00EBE10D4E4FE03
:101B3E0075F010EFA42426F582E5F03406F583E562
:101B4E00822EF582E43583F583E493FD74C42EF57D
:0C1B5E0082E43400F583EDF00EBE10D4DC
:011B6A002258
:04192E008F0F8D107A
:10193200E50F24B0FF121DD3121DCE121ED37F78E5
:10194200121DA8121E3D7F40121DA8121E3DE4F575
:101952001174B42511F582E43400F583E0FF121D01
:10196200A8121E3D0511E511C3941040E4121EEEAB
:10197200E50F24B1FF121DD3121DCE121ED37F78A4
:10198200121DA8121E3D7F40121DA8121E3DE4F535
:101992001174C42511F582E43400F583E0FF121DB1
:1019A200A8121E3D0511E511C3941040E4021EEE7B
:041DF300E4FBFAFC17
:101DF7008C098D0AA907EB4A7007AF0E121B0E80DC
:101E070009AF03AD0EAC0D12168AAF01AD0A021968
:011E17002E9C
:101BC600E4F508E4F509E50824B0FF121DD3E5099C
:101BD6002410FF121DD3121ED37F78121DA8121EC9
:101BE6003D7F40121DA8121E3DE4F50AE4FF121DBA
:101BF600A8121E3D050AE50AC3941040EF121EEE18
:101C06000509E509C3940840BD0508E508C394081D
:021C160040B1DB
:011C180022A9
:0E1EC40000007F177ECD7D78DDFEDEFCDFFAAC
:011ED20022ED
:10159400C2CC121EC4D2CCE4FF121DD37F01121D93
:1015A400D37F81121DD37FFF121DD37FA4121DD3BD
:1015B4007FA6121DD37FAF121DD37F40121DD37F90
:1015C400A1121DD37FC8121DD37FDA121DD37F123F
:1015D400121DD37FA8121DD37F3F121DD37FD312B8
:1015E4001DD3E4FF121DD37FD5121DD3E4FF121DBA
:1015F400D37FD9121DD37F22121DD37FDB121DD3BB
:101604007F20121DD37F8D121DD37F14121DD37F13
:1016140020121DD37F02121DD3121BC6E4F50DF553
:101624000EFBFAFDFCFF121DF7750D00750E02E4AA
:10163400FBFA7D01FCFF121DF7750D00750E10E419
:10164400FBFAFDFC7F02121DF7750D00750E127D6D
:10165400017F02121DF3750D00750E787B307A0040
:10166400E4FDFC7F06121DF7750D00750E1C7D064A
:101674007F06121DF3750D00750E1EE4FBFA7D073F
:06168400FC7F06021DF7C9
:10186A004F00DB0000000000000000000000000044
:10187A0000004100D900C1064100EC004200EA0024
:10188A0000C1854100DA004100D7004100D800417B
:07189A0000D5004100D6005B
:101E1800759850438E0575D6FC75D7F3438E10D24E
:101E2800ACD2AFC2B27D017F04121E7ABF0103D2C9
:051E38000522C2052295
:03002300021D00BB
:101D0000C0E0C083C082C0D0309823C298D2069071
:101D100000ECE024DBF582E43400F583E599F090F3
:101D200000ECE004F09000EAE4F0A3F0800B3099BE
:101D300008C2999000D97401F0D0D0D082D083D05D
:021D4000E0328F
:10145A00D2B29000D5E004F0E024F5B40E004003C7
:10146A0002159390147B75F003A4C58325F0C583F8
:10147A00730214A50214AA0214AF0214B30214BF11
:10148A000214C80214CD0214D20214FB021524025B
:10149A00153C02157A02157F0215887599B48047A2
:1014AA007599D38042E4FD80027D017F04121E7A81
:1014BA008F990215829000F7E0F599021582900043
:1014CA000D806A90000880659000F7E0B4071B90D1
:1014DA00000DE0B4C81430040890000EE0F59980BD
:1014EA0006200403E4F5990215829000D57416F0DB
:1014FA00229000F7E06407600302159390000DE064
:10150A0064C8600302159330040890000FE0F5994F
:10151A008006200403E4F599805E9000F7E06407F2
:10152A00706790000DE064C8705F9000EEE0F59976
:10153A0080469000F7E06407704F90000DE064C8A1
:10154A0070479000D6E02411F582E43400F583E078
:10155A00F599E49000D9F09000D6E004F0E0C39445
:10156A00A050079000D57414F022E49000D6F0221F
:10157A0075990D800375990AE49000D9F022E490D8
:09158A0000D5F09000D9F0C2B2C6
:011593002235
:10107F009000EBE004F070069000EAE004F0D390EB
:10108F0000EBE094C89000EAE09400500302127F56
:10109F00E4F0A3F0C206A3F0F50874DB2508F5828F
:1010AF00E43400F583E064D6600302120974DC2592
:1010BF0008F582E43400F583E064F7600302120957
:1010CF0074E02508F582E43400F583E0640D6003D5
:1010DF0002120974E12508F582E43400F583E06417
:1010EF000A600302120974DF2508F582E43400F563
:1010FF0083E024FD600A24FC70030211B902127F01
:10110F00900006E060030211A69000B3E075F003B3
:10111F0084E5F0F0E004F07F02121EB59000B3E01A
:10112F00FBE4FD7F02121E919000B3E024FE601ECF
:10113F001460352402704D900007741EF090000566
:10114F007432F09000097403F0A37420801590009E
:10115F00077450F09000057414F09000097402F0B9
:10116F00A37426F0D20480189000077450F09000FA
:10117F00057414F09000097403F0A37420F0C204F6
:10118F00D201D20320050302127F9000D97401F01F
:10119F009000F77405F02220050302127F9000D90A
:1011AF007401F09000F77406F022900010E004F044
:1011BF007D017F04121E7A74DE2508F582E4340067
:1011CF00F583E0FEB5070DEE9000D7B40A030212C7
:1011DF006802126F7D017F04121E7A74DE2508F5F6
:1011EF0082E43400F583E02401FDE433FCED6F70FD
:1011FF0001EC707C9000DA04F02274DB2508F58294
:10120F00E43400F583E064B4705A74DC2508F58289
:10121F00E43400F583E064D3704A74E22508F58264
:10122F00E43400F583E0640D703A74E32508F58229
:10123F00E43400F583E0B40A2B74DF2508F582E46B
:10124F003400F583E024FE600D24FA60102407704B
:10125F001F9000F8800A9000F87402F0229000D8D6
:10126F007401F0220508E508C3940750030210A982
:01127F00224C
:101EA40030060302107F9000D9E0B4010312145AE3
:011EB400220B
:1018AE00021C68E493A3F8E493A34003F68001F2CC
:1018BE0008DFF48029E493A3F85407240CC8C3333B
:1018CE00C4540F4420C8834004F456800146F6DF0A
:1018DE00E4800B0102040810204080901805E47E7D
:1018EE00019360BCA3FF543F30E509541FFEE493FF
:1018FE00A360010ECF54C025E060A840B8E493A3C6
:10190E00FAE493A3F8E493A3C8C582C8CAC583CAF0
:10191E00F0A3C8C582C8CAC583CADFE9DEE780BEA8
:0118A1000046
:10128000EF8DF0A4A8F0CF8CF0A428CE8DF0A42E82
:02129000FE223C
:10129200BC000BBE0029EF8DF084FFADF022E4CC40
:1012A200F875F008EF2FFFEE33FEEC33FCEE9DEC09
:1012B200984005FCEE9DFE0FD5F0E9E4CEFD22ED4F
:1012C200F8F5F0EE8420D21CFEADF075F008EF2F99
:1012D200FFED33FD4007985006D5F0F222C398FD8A
:0512E2000FD5F0EA2227
:1012E700E88FF0A4CC8BF0A42CFCE98EF0A42CFCA6
:1012F7008AF0EDA42CFCEA8EF0A4CDA8F08BF0A424
:101307002DCC3825F0FDE98FF0A42CCD35F0FCEB82
:101317008EF0A4FEA9F0EB8FF0A4CFC5F02ECD3947
:0F132700FEE43CFCEAA42DCE35F0FDE43CFC22B4
:1013360075F008758200EF2FFFEE33FECD33CDCC6E
:1013460033CCC58233C5829BED9AEC99E5829840F1
:101356000CF582EE9BFEED9AFDEC99FC0FD5F0D6CE
:10136600E4CEFBE4CDFAE4CCF9A88222B800C1B9F8
:101376000059BA002DEC8BF084CFCECDFCE5F0CB36
:10138600F97818EF2FFFEE33FEED33FDEC33FCEB6F
:1013960033FB10D703994004EB99FB0FD8E5E4F92A
:1013A600FA227818EF2FFFEE33FEED33FDEC33FC17
:1013B600C933C910D7059BE99A4007EC9BFCE99A0B
:1013C600F90FD8E0E4C9FAE4CCFB2275F010EF2F50
:1013D600FFEE33FEED33FDCC33CCC833C810D70750
:1013E6009BEC9AE899400AED9BFDEC9AFCE899F88B
:0E13F6000FD5F0DAE4CDFBE4CCFAE4C8F9221E
:10140400EB9FF5F0EA9E42F0E99D42F0E89C45F03E
:0114140022B5
:10141500E8600FECC313FCED13FDEE13FEEF13FFB5
:03142500D8F122D9
:0C142800ECF0A3EDF0A3EEF0A3EFF02237
:10143400D083D082F8E4937012740193700DA3A347
:1014440093F8740193F5828883E47374029368605B
:06145400EFA3A3A380DF5B
:00000001FF
